{
  "_format": "hh3-artifact-1",
  "contractName": "FundMe",
  "sourceName": "contracts/FundMe.sol",
  "abi": [
    {
      "inputs": [
        {
          "internalType": "address",
          "name": "priceFeedAddress",
          "type": "address"
        }
      ],
      "stateMutability": "nonpayable",
      "type": "constructor"
    },
    {
      "inputs": [],
      "name": "NotOwner",
      "type": "error"
    },
    {
      "stateMutability": "payable",
      "type": "fallback"
    },
    {
      "inputs": [],
      "name": "MINIMUM_USD",
      "outputs": [
        {
          "internalType": "uint256",
          "name": "",
          "type": "uint256"
        }
      ],
      "stateMutability": "view",
      "type": "function"
    },
    {
      "inputs": [
        {
          "internalType": "address",
          "name": "",
          "type": "address"
        }
      ],
      "name": "addressToAmountFunded",
      "outputs": [
        {
          "internalType": "uint256",
          "name": "",
          "type": "uint256"
        }
      ],
      "stateMutability": "view",
      "type": "function"
    },
    {
      "inputs": [],
      "name": "fund",
      "outputs": [],
      "stateMutability": "payable",
      "type": "function"
    },
    {
      "inputs": [
        {
          "internalType": "uint256",
          "name": "",
          "type": "uint256"
        }
      ],
      "name": "funders",
      "outputs": [
        {
          "internalType": "address",
          "name": "",
          "type": "address"
        }
      ],
      "stateMutability": "view",
      "type": "function"
    },
    {
      "inputs": [],
      "name": "getVersion",
      "outputs": [
        {
          "internalType": "uint256",
          "name": "",
          "type": "uint256"
        }
      ],
      "stateMutability": "view",
      "type": "function"
    },
    {
      "inputs": [],
      "name": "i_owner",
      "outputs": [
        {
          "internalType": "address",
          "name": "",
          "type": "address"
        }
      ],
      "stateMutability": "view",
      "type": "function"
    },
    {
      "inputs": [],
      "name": "priceFeed",
      "outputs": [
        {
          "internalType": "contract AggregatorV3Interface",
          "name": "",
          "type": "address"
        }
      ],
      "stateMutability": "view",
      "type": "function"
    },
    {
      "inputs": [],
      "name": "withdraw",
      "outputs": [],
      "stateMutability": "nonpayable",
      "type": "function"
    },
    {
      "stateMutability": "payable",
      "type": "receive"
    }
  ],
  "bytecode": "0x60a060405234801561001057600080fd5b5060405161089d38038061089d83398101604081905261002f91610058565b60028054336001600160a01b031990911617905560601b6001600160601b031916608052610088565b60006020828403121561006a57600080fd5b81516001600160a01b038116811461008157600080fd5b9392505050565b60805160601c6107e96100b46000396000818161012f015281816101b9015261029b01526107e96000f3fe60806040526004361061007f5760003560e01c8063741bef1a1161004e578063741bef1a1461011d578063b60d42881461008e578063dba6335f14610169578063dc0d3dff146101895761008e565b80630d8e6e2c146100965780633ccfd60b146100be5780633e47d6f3146100d35780636b69a592146101005761008e565b3661008e5761008c6101a9565b005b61008c6101a9565b3480156100a257600080fd5b506100ab610297565b6040519081526020015b60405180910390f35b3480156100ca57600080fd5b5061008c61032f565b3480156100df57600080fd5b506100ab6100ee3660046105c4565b60006020819052908152604090205481565b34801561010c57600080fd5b506100ab6802b5e3af16b188000081565b34801561012957600080fd5b506101517f000000000000000000000000000000000000000000000000000000000000000081565b6040516001600160a01b0390911681526020016100b5565b34801561017557600080fd5b50600254610151906001600160a01b031681565b34801561019557600080fd5b506101516101a43660046105ed565b610458565b6802b5e3af16b18800006101dd347f0000000000000000000000000000000000000000000000000000000000000000610482565b10156102305760405162461bcd60e51b815260206004820152601b60248201527f596f75206e65656420746f207370656e64206d6f72652045544821000000000060448201526064015b60405180910390fd5b336000908152602081905260408120805434929061024f90849061061c565b90915550506001805480820182556000919091527fb10e2d527612073b26eecdfd717e6a320cf44b4afac2b0732d9fcbe2b7fa0cf60180546001600160a01b03191633179055565b60007f00000000000000000000000000000000000000000000000000000000000000006001600160a01b03166354fd4d506040518163ffffffff1660e01b815260040160206040518083038186803b1580156102f257600080fd5b505afa158015610306573d6000803e3d6000fd5b505050506040513d601f19601f8201168201806040525081019061032a9190610634565b905090565b6002546001600160a01b0316331461035a576040516330cd747160e01b815260040160405180910390fd5b60005b6001548110156103b05760006001828154811061037c5761037c61064d565b60009182526020808320909101546001600160a01b03168252819052604081205550806103a881610663565b91505061035d565b5060408051600081526020810191829052516103ce9160019161054a565b50604051600090339047908381818185875af1925050503d8060008114610411576040519150601f19603f3d011682016040523d82523d6000602084013e610416565b606091505b50509050806104555760405162461bcd60e51b815260206004820152600b60248201526a10d85b1b0819985a5b195960aa1b6044820152606401610227565b50565b6001818154811061046857600080fd5b6000918252602090912001546001600160a01b0316905081565b60008061048e836104b8565b90506000670de0b6b3a76400006104a5868461067e565b6104af919061069d565b95945050505050565b600080826001600160a01b031663feaf968c6040518163ffffffff1660e01b815260040160a06040518083038186803b1580156104f457600080fd5b505afa158015610508573d6000803e3d6000fd5b505050506040513d601f19601f8201168201806040525081019061052c91906106de565b505050915050806402540be400610543919061072e565b9392505050565b82805482825590600052602060002090810192821561059f579160200282015b8281111561059f57825182546001600160a01b0319166001600160a01b0390911617825560209092019160019091019061056a565b506105ab9291506105af565b5090565b5b808211156105ab57600081556001016105b0565b6000602082840312156105d657600080fd5b81356001600160a01b038116811461054357600080fd5b6000602082840312156105ff57600080fd5b5035919050565b634e487b7160e01b600052601160045260246000fd5b6000821982111561062f5761062f610606565b500190565b60006020828403121561064657600080fd5b5051919050565b634e487b7160e01b600052603260045260246000fd5b600060001982141561067757610677610606565b5060010190565b600081600019048311821515161561069857610698610606565b500290565b6000826106ba57634e487b7160e01b600052601260045260246000fd5b500490565b805169ffffffffffffffffffff811681146106d957600080fd5b919050565b600080600080600060a086880312156106f657600080fd5b6106ff866106bf565b9450602086015193506040860151925060608601519150610722608087016106bf565b90509295509295909350565b60006001600160ff1b038184138284138082168684048611161561075457610754610606565b600160ff1b600087128281168783058912161561077357610773610606565b6000871292508782058712848416161561078f5761078f610606565b878505871281841616156107a5576107a5610606565b50505092909302939250505056fea264697066735822122037c1b47f8564b7e1025a8f1163f1ce7e0ba8e1f828aaa1a798516d69dda344a164736f6c63430008080033",
  "linkReferences": {},
  "deployedLinkReferences": {},
  "immutableReferences": {
    "74": [
      {
        "length": 32,
        "start": 303
      },
      {
        "length": 32,
        "start": 441
      },
      {
        "length": 32,
        "start": 667
      }
    ]
  },
  "inputSourceName": "project/contracts/FundMe.sol",
  "buildInfoId": "solc-0_8_8-f7c90064025a8c6d6130aff6954891e654aef348"
}