{
  "_format": "hh3-artifact-1",
  "contractName": "FundMe",
  "sourceName": "contracts/FundMe.sol",
  "abi": [
    {
      "inputs": [
        {
          "internalType": "address",
          "name": "priceFeedAddress",
          "type": "address"
        }
      ],
      "stateMutability": "nonpayable",
      "type": "constructor"
    },
    {
      "inputs": [],
      "name": "FundMe__NotEnoughETH",
      "type": "error"
    },
    {
      "inputs": [],
      "name": "FundMe__NotOwner",
      "type": "error"
    },
    {
      "inputs": [],
      "name": "FundMe__WithdrawFailed",
      "type": "error"
    },
    {
      "stateMutability": "payable",
      "type": "fallback"
    },
    {
      "inputs": [],
      "name": "cheaperWithdraw",
      "outputs": [],
      "stateMutability": "payable",
      "type": "function"
    },
    {
      "inputs": [],
      "name": "fund",
      "outputs": [],
      "stateMutability": "payable",
      "type": "function"
    },
    {
      "inputs": [
        {
          "internalType": "address",
          "name": "funder",
          "type": "address"
        }
      ],
      "name": "getAmountFundedByAddress",
      "outputs": [
        {
          "internalType": "uint256",
          "name": "",
          "type": "uint256"
        }
      ],
      "stateMutability": "view",
      "type": "function"
    },
    {
      "inputs": [
        {
          "internalType": "uint256",
          "name": "index",
          "type": "uint256"
        }
      ],
      "name": "getFunder",
      "outputs": [
        {
          "internalType": "address",
          "name": "",
          "type": "address"
        }
      ],
      "stateMutability": "view",
      "type": "function"
    },
    {
      "inputs": [],
      "name": "getMinimumUsd",
      "outputs": [
        {
          "internalType": "uint256",
          "name": "",
          "type": "uint256"
        }
      ],
      "stateMutability": "pure",
      "type": "function"
    },
    {
      "inputs": [],
      "name": "getOwner",
      "outputs": [
        {
          "internalType": "address",
          "name": "",
          "type": "address"
        }
      ],
      "stateMutability": "view",
      "type": "function"
    },
    {
      "inputs": [],
      "name": "getPriceFeed",
      "outputs": [
        {
          "internalType": "contract AggregatorV3Interface",
          "name": "",
          "type": "address"
        }
      ],
      "stateMutability": "view",
      "type": "function"
    },
    {
      "inputs": [],
      "name": "getVersion",
      "outputs": [
        {
          "internalType": "uint256",
          "name": "",
          "type": "uint256"
        }
      ],
      "stateMutability": "view",
      "type": "function"
    },
    {
      "inputs": [],
      "name": "withdraw",
      "outputs": [],
      "stateMutability": "nonpayable",
      "type": "function"
    },
    {
      "stateMutability": "payable",
      "type": "receive"
    }
  ],
  "bytecode": "0x60c060405234801561001057600080fd5b50604051610a51380380610a5183398101604081905261002f9161004b565b33606090811b6080521b6001600160601b03191660a05261007b565b60006020828403121561005d57600080fd5b81516001600160a01b038116811461007457600080fd5b9392505050565b60805160601c60a05160601c6109906100c16000396000818161016a015281816101e2015261029001526000818160ed0152818161032f015261045901526109906000f3fe60806040526004361061008a5760003560e01c80639e87a5cd116100595780639e87a5cd1461015b578063b60d428814610099578063be2693f01461018e578063c003bf1214610196578063d7b4750c146101b257610099565b80630d8e6e2c146100a15780633ccfd60b146100c9578063893d20e8146100de5780639b23b0c91461012557610099565b36610099576100976101d2565b005b6100976101d2565b3480156100ad57600080fd5b506100b661028c565b6040519081526020015b60405180910390f35b3480156100d557600080fd5b50610097610324565b3480156100ea57600080fd5b507f00000000000000000000000000000000000000000000000000000000000000005b6040516001600160a01b0390911681526020016100c0565b34801561013157600080fd5b506100b661014036600461076b565b6001600160a01b031660009081526020819052604090205490565b34801561016757600080fd5b507f000000000000000000000000000000000000000000000000000000000000000061010d565b61009761044e565b3480156101a257600080fd5b506802b5e3af16b18800006100b6565b3480156101be57600080fd5b5061010d6101cd366004610794565b6105f9565b6802b5e3af16b1880000610206347f0000000000000000000000000000000000000000000000000000000000000000610629565b10156102255760405163b514e4ed60e01b815260040160405180910390fd5b33600090815260208190526040812080543492906102449084906107c3565b90915550506001805480820182556000919091527fb10e2d527612073b26eecdfd717e6a320cf44b4afac2b0732d9fcbe2b7fa0cf60180546001600160a01b03191633179055565b60007f00000000000000000000000000000000000000000000000000000000000000006001600160a01b03166354fd4d506040518163ffffffff1660e01b815260040160206040518083038186803b1580156102e757600080fd5b505afa1580156102fb573d6000803e3d6000fd5b505050506040513d601f19601f8201168201806040525081019061031f91906107db565b905090565b336001600160a01b037f0000000000000000000000000000000000000000000000000000000000000000161461036d5760405163579610db60e01b815260040160405180910390fd5b60005b6001548110156103c35760006001828154811061038f5761038f6107f4565b60009182526020808320909101546001600160a01b03168252819052604081205550806103bb8161080a565b915050610370565b5060408051600081526020810191829052516103e1916001916106f1565b50604051600090339047908381818185875af1925050503d8060008114610424576040519150601f19603f3d011682016040523d82523d6000602084013e610429565b606091505b505090508061044b57604051630f02e6d360e41b815260040160405180910390fd5b50565b336001600160a01b037f000000000000000000000000000000000000000000000000000000000000000016146104975760405163579610db60e01b815260040160405180910390fd5b600060018054806020026020016040519081016040528092919081815260200182805480156104ef57602002820191906000526020600020905b81546001600160a01b031681526001909101906020018083116104d1575b5050505050905060005b815181101561054c576000828281518110610516576105166107f4565b6020908102919091018101516001600160a01b0316600090815290819052604081205550806105448161080a565b9150506104f9565b50604080516000815260208101918290525161056a916001916106f1565b50604051600090339047908381818185875af1925050503d80600081146105ad576040519150601f19603f3d011682016040523d82523d6000602084013e6105b2565b606091505b50509050806105f55760405162461bcd60e51b815260206004820152600b60248201526a10d85b1b0819985a5b195960aa1b604482015260640160405180910390fd5b5050565b60006001828154811061060e5761060e6107f4565b6000918252602090912001546001600160a01b031692915050565b6000806106358361065f565b90506000670de0b6b3a764000061064c8684610825565b6106569190610844565b95945050505050565b600080826001600160a01b031663feaf968c6040518163ffffffff1660e01b815260040160a06040518083038186803b15801561069b57600080fd5b505afa1580156106af573d6000803e3d6000fd5b505050506040513d601f19601f820116820180604052508101906106d39190610885565b505050915050806402540be4006106ea91906108d5565b9392505050565b828054828255906000526020600020908101928215610746579160200282015b8281111561074657825182546001600160a01b0319166001600160a01b03909116178255602090920191600190910190610711565b50610752929150610756565b5090565b5b808211156107525760008155600101610757565b60006020828403121561077d57600080fd5b81356001600160a01b03811681146106ea57600080fd5b6000602082840312156107a657600080fd5b5035919050565b634e487b7160e01b600052601160045260246000fd5b600082198211156107d6576107d66107ad565b500190565b6000602082840312156107ed57600080fd5b5051919050565b634e487b7160e01b600052603260045260246000fd5b600060001982141561081e5761081e6107ad565b5060010190565b600081600019048311821515161561083f5761083f6107ad565b500290565b60008261086157634e487b7160e01b600052601260045260246000fd5b500490565b805169ffffffffffffffffffff8116811461088057600080fd5b919050565b600080600080600060a0868803121561089d57600080fd5b6108a686610866565b94506020860151935060408601519250606086015191506108c960808701610866565b90509295509295909350565b60006001600160ff1b03818413828413808216868404861116156108fb576108fb6107ad565b600160ff1b600087128281168783058912161561091a5761091a6107ad565b60008712925087820587128484161615610936576109366107ad565b8785058712818416161561094c5761094c6107ad565b50505092909302939250505056fea26469706673582212208d4f7b842426bd1b32f0870ab29ba112c1a47155b5f7c4b6feb573b85629822564736f6c63430008080033",
  "linkReferences": {},
  "deployedLinkReferences": {},
  "immutableReferences": {
    "69": [
      {
        "length": 32,
        "start": 237
      },
      {
        "length": 32,
        "start": 815
      },
      {
        "length": 32,
        "start": 1113
      }
    ],
    "79": [
      {
        "length": 32,
        "start": 362
      },
      {
        "length": 32,
        "start": 482
      },
      {
        "length": 32,
        "start": 656
      }
    ]
  },
  "inputSourceName": "project/contracts/FundMe.sol",
  "buildInfoId": "solc-0_8_8-bdfb13783e4d0892d41b2bf781b328aaaaea656e"
}